:020000040000FA
:100000000C949F020C94C7020C94C7020C94C70274
:100010000C94C7020C94C7020C94C7020C944314AE
:100020000C94C7020C94C7020C94C7020C94C7022C
:100030000C94C7020C94C7020C94C7020C94C7021C
:100040000C94F9130C94C7020C94C5140C949F14CF
:100050000C94C7020C94C7020C94C7020C94C702FC
:100060000C94F7140C94C70200407A10F35A00A0C5
:10007000724E18090010A5D4E80000E87648170071
:1000800000E40B54020000CA9A3B000000E1F505B1
:10009000000080969800000040420F000000A086FB
:1000A00001000000102700000000E803000000002D
:1000B0006400000000000A000000000001000000D1
:1000C00000002C76D888DC674F0823DFC1DFAE59EB
:1000D000E1B1B796E5E3E453C63AE651997696E87E
:1000E000E6C28426EB898C9B62ED407C6FFCEFBC02
:1000F0009C9F40F2BAA56FA5F490055A2AF75C932D
:100100006B6CF9676DC11BFCE0E40D47FEF520E662
:10011000B500D0ED902E0300943577050080841E45
:10012000080000204E0A000000C80C333333330FA0
:10013000986E12831141EF8D2114893BE65516CF3D
:10014000FEE6DB18D1844B381BF77C1D901DA4BB49
:10015000E424203284725E228100C9F124ECA1E5FE
:100160003D2720393920546F726E6120616C206CFC
:100170006F6F702073656E7A6120726573657400AD
:10018000203230205465737420747574746920674C
:100190006C69206F7574707574206469206E616E6F
:1001A0006F2C2064612044322061206431330020B0
:1001B0003139204C6567676520736F6C6F2041444F
:1001C0004320757361746900203138204C6567677E
:1001D0006520747574746920676C6920414443001C
:1001E0002031372044656275672069732000203113
:1001F00036200020313520526970657465206369AE
:10020000636C6F204C4F4F502066696E6F206120E9
:100210005100203134204162696C6974612042755B
:100220007A7A657200203133204469736162696CA7
:100230006974612042757A7A65720020313220003B
:100240002031312044656275672000203130202E36
:100250005573612046756E7A696F6E6520536F67BE
:100260006C6961205375706572617461002020397A
:10027000205465737420627574746F6E002020388A
:10028000202E5573612046756E7A696F6E65205613
:100290006F6C746D6574726F002020372054657325
:1002A000742046756E7A696F6E6520566F6C746D3A
:1002B0006574726F00202036202E557361204675BC
:1002C0006E7A696F6E652053656E736F7265204339
:1002D0006F7272656E7465002020352054657374EA
:1002E0002046756E7A696F6E652053656E736F7206
:1002F0006520436F7272656E746500202034202E75
:100300005573612046756E7A696F6E652054726907
:100310006D6D657220536F676C696100202033201A
:10032000546573742046756E7A696F6E65205472D9
:10033000696D6D657220536F676C696100202032B2
:1003400020546573742062757A7A657200202031BA
:10035000205465737420646973706C6179203278FD
:100360003136203132333835363738204142434434
:10037000454647482E2E0020203020526573657474
:10038000007C2A2A2A2A2A2A2A2A2A2A2A2A2A2AA5
:100390002A2A2A2A2A2A2A2A2A2A2A2A2A2A2A2ABD
:1003A0002A2A2A2A2A2A2A2A2A2A2A2A2A007C208F
:1003B000205665722E20007C202020202020202026
:1003C0002020202020CA98E280BFCA982020204DFB
:1003D000656EC3B920202028E297A15FE297A1298A
:1003E00020202020202020202020007C2A2A2A2AA9
:1003F0002A2A2A2A2A2A2A2A2A2A2A2A2A2A2A2A5D
:100400002A2A2A2A2A2A2A2A2A2A2A2A2A2A2A2A4C
:100410002A2A2A2A2A2A2A00746F726E6F20616C97
:10042000206C6F6F70270045272073746174612002
:100430007363656C7461206C27617A696F6E6520E7
:100440006E2E20393900436F6D616E646F206572C6
:100450007261746F2120526970726F766100496C0D
:10046000207265736574206E6F6E206861206675FA
:100470006E7A696F6E61746F007265736574207453
:1004800072612031207365630072696365767574EB
:100490006F20436D644D656E752000025665727362
:1004A000696F6E65200020536B6574636820627508
:1004B000696C6420787878787820007C2A2A2A2A47
:1004C0002A2A20202053495354454D412052455358
:1004D00045545441544F20202A2A2A2A2A2A7C0093
:1004E00000000000240027002A0000000000250072
:1004F00028002B000000000023002600290004042F
:1005000004040404040402020202020203030303BB
:100510000303010204081020408001020408102097
:10052000010204081020000000080002010000037E
:100530000407000000000000000016169D1811249A
:100540001FBECFEFD8E0DEBFCDBF26E0A6E6B4E009
:1005500001C01D92A433B207E1F714E0A0E0B1E0BE
:10056000E2E7F5E402C005900D92A636B107D9F78F
:1005700012E0CEE9D2E004C02197FE010E94DA1D0C
:10058000CD39D107C9F70E9471160C94AC220C9496
:100590000000833081F028F4813099F08230A9F096
:1005A00008958730A9F08830C9F08430B1F4809183
:1005B00080008F7D03C0809180008F7780938000C2
:1005C000089584B58F7784BD089584B58F7DFBCF62
:1005D0008091B0008F778093B00008958091B00033
:1005E0008F7DF9CFCF93DF93EAE2F5E08491E6E1E6
:1005F000F5E0D491E2E0F5E0C491CC23A1F08111C3
:100600000E94C902EC2FF0E0EE0FFF1FEC50FB4FF1
:10061000A591B491EC91ED2381E090E009F480E0A4
:10062000DF91CF91089580E090E0FACF1F93CF93B0
:10063000DF93282F30E0F901EA5DFA4F8491F90148
:10064000EE5EFA4FD491F901E250FB4FC491CC23F6
:10065000A9F0162F81110E94C902EC2FF0E0EE0FD5
:10066000FF1FE651FB4FA591B4918FB7F894EC9121
:10067000111108C0D095DE23DC938FBFDF91CF919D
:100680001F910895DE2BF8CFCF93DF9390E0FC010C
:10069000EE5EFA4F249182509B4FFC018491882397
:1006A000D1F090E0880F991FFC01E052FB4FA5911B
:1006B000B491FC01E651FB4FC591D491623071F4C5
:1006C0009FB7F8943C91822F809583238C93E88187
:1006D0002E2B28839FBFDF91CF9108958FB7F89479
:1006E000EC912E2B2C938FBFF6CF8E3008F08E50CE
:1006F000806480937C0080917A00806480937A008B
:1007000080917A0086FDFCCF8091780090917900ED
:1007100008953FB7F8948091650590916605A09182
:100720006705B091680526B5A89B05C02F3F19F055
:100730000196A11DB11D3FBFBA2FA92F982F882761
:10074000BC01CD01620F711D811D911D42E0660F3C
:10075000771F881F991F4A95D1F708958F929F920E
:10076000AF92BF92CF92DF92EF92FF926B017C012A
:100770000E9489034B015C01C114D104E104F1041E
:10078000B9F00E948903681979098A099B09683EB2
:1007900073408105910580F321E0C21AD108E10878
:1007A000F10888EE880E83E0981EA11CB11CE4CFEE
:1007B000FF90EF90DF90CF90BF90AF909F908F9081
:1007C00008952FB7F894609161057091620580914A
:1007D0006305909164052FBF089508950895909141
:1007E000020189130BC0EBE9F4E0E4919FEF9093D1
:1007F0000201E13049F028F0E23061F060E00C9451
:10080000160310926E00FACF90916F009D7F909327
:100810006F00F4CF909170009D7F9093700091E0F5
:100820009093B0009091B100987F94609093B10044
:100830001092B300E3CFAF92BF92CF92DF92EF92CC
:10084000FF920F931F93CF93DF936C017B018B017A
:10085000040F151FEB015E01AE18BF08C017D107CA
:1008600059F06991D601ED91FC910190F081E02D54
:10087000C6010995892B79F7C501DF91CF911F91A9
:100880000F91FF90EF90DF90CF90BF90AF900895C1
:10089000FC01538D448D252F30E0842F90E0821B86
:1008A000930B541710F0CF96089501970895FC010B
:1008B000918D828D981761F0A28DAE0FBF2FB11D63
:1008C0005D968C91928D9F5F9F73928F90E00895BB
:1008D0008FEF9FEF0895FC01918D828D981731F075
:1008E000828DE80FF11D858D90E008958FEF9FEFC9
:1008F00008950F931F930E94E10360937105709315
:100900007205809373059093740589E695E00E94C3
:100910006B0497FF1DC00E94E103009171051091C7
:1009200072052091730530917405601B710B820B69
:10093000930B00916D0510916E0520916F0530911C
:1009400070056017710782079307F8F28FEF9FEF2A
:100950001F910F910895FC01918D228D892F90E0B8
:10096000805C9F4F821B91098F739927089589E6B8
:1009700095E00E94AB0421E0892B09F420E0822F4E
:100980000895FC01A48DA80FB92FB11DA35ABF4F24
:100990002C91848D90E001968F739927848FA6897E
:1009A000B7892C93A089B1898C91837080648C93D2
:1009B000938D848D981306C00288F389E02D808181
:1009C0008F7D80830895EF92FF920F931F93CF93B3
:1009D000DF93EC0181E0888F9B8D8C8D98131AC07A
:1009E000E889F989808185FF15C09FB7F894EE8961
:1009F000FF896083E889F9898081837080648083BE
:100A00009FBF81E090E0DF91CF911F910F91FF9008
:100A1000EF900895F62E0B8D10E00F5F1F4F0F73B0
:100A20001127E02E8C8D8E110CC00FB607FCFACF6B
:100A3000E889F989808185FFF5CFCE010E94C10444
:100A4000F1CFEB8DEC0FFD2FF11DE35AFF4FF0823C
:100A50009FB7F8940B8FEA89FB8980818062CFCFA2
:100A60000F931F93CF93DF938C01D0E0C0E0F80188
:100A7000EC0FFD1F6491662341F089E695E00E942A
:100A8000E304892B11F02196F2CFCE01DF91CF91B3
:100A90001F910F910895CF93DF93EC01888D8823E8
:100AA000B9F0AA89BB89E889F9898C9185FD03C0D1
:100AB000808186FD0DC00FB607FCF7CF8C9185FFB6
:100AC000F2CF808185FFEDCFCE010E94C104E9CF36
:100AD000DF91CF9108952091FE04260F3327331F15
:100AE00021323105ECF420912205FC0190E080E0F8
:100AF000243069F082E00895A091FE042191AC01B8
:100B000042525B4FA40FB52FB11D2C93019686174F
:100B100098F38091FE04680F6093FE0480E00895CE
:100B200081E008951092220581E0809324051092BF
:100B3000230561E082E10E94160361E083E10E94E7
:100B40001603E9EBF0E080818E7F808380818D7FCA
:100B5000808388E48093B80085E48093BC00089586
:100B6000CF93DF9391E09093DD048823B9F0C09197
:100B7000B800D091BA008091BC008A7B8093BC0001
:100B800060E082E10E94160360E083E10E941603A8
:100B90000E949205D093BA00C093B800DF91CF9124
:100BA00008950895E091560580915505E81730F4B1
:100BB000F0E0E854FB4F808190E008958FEF9FEFC5
:100BC000089590915605809155052FEF3FEF9817A6
:100BD00048F4E92FF0E0E854FB4F208130E09F5FBC
:100BE00090935605C9010895809155059091560539
:100BF000891B990B0895CF92DF92EF92FF920F938A
:100C00001F93CF93DF937C01CB018A012091B7041E
:100C1000222389F0EB016B01C40ED51ECC15DD0536
:100C200069F06991D701ED91FC910190F081E02D7F
:100C3000C7010995F3CF642F0E946B05C801DF91AE
:100C4000CF911F910F91FF90EF90DF90CF9008957B
:100C5000CF93DF931F92CDB7DEB769832091B7049E
:100C60002223F9F020915305203258F021E030E0A2
:100C7000FC013383228390E080E00F90DF91CF91DD
:100C8000089580915405E82FF0E0E956FB4F9981D3
:100C900090838F5F809354058093530581E090E0AB
:100CA000ECCF61E0CE0101960E946B05F7CF89E69B
:100CB00095E00E94AB04181619062CF489E695E01D
:100CC0000E945704F4CF08954F925F926F927F92E3
:100CD0008F929F92AF92BF92EF92FF920F931F93CA
:100CE000CF9320915705211111C07B018C014B013D
:100CF000770FAA08BB08809102018230B9F08F3FBC
:100D000009F45DC0C501B4010E94AE0382E0CF9139
:100D10001F910F91FF90EF90BF90AF909F908F9099
:100D20007F906F905F904F900C94EF03EBE9F4E0AD
:100D3000C491C7FDE7CF61E082E00E944403CC2369
:100D400019F0C23009F0AAC068E478EE81E090E0C2
:100D50009801012E000C440B550B0E94B41D290173
:100D60003A0181E0481A510861087108CC2309F45E
:100D7000E7C08091B100887F84608093B1002FEF3D
:100D80003FEFA90181149104A104B10409F0A9C0A5
:100D9000C13009F4B3C0C23009F4C2C0C111B2CF2E
:100DA00047BC20936D0430936E0440936F045093BE
:100DB000700480916E00826080936E00A3CF82E009
:100DC00080930201EBE9F4E0C491CF3F09F49ACF9C
:100DD000C13021F150F0C23009F43EC0C7FD92CFBE
:100DE00061E082E00E944403ACCF14BC15BC84B522
:100DF000826084BD85B5816085BDE0E0F5E0E49169
:100E0000F0E0EE0FFF1FE651FB4F85919491E4E176
:100E1000F5E0E491E0936804C0E08DCF109280008B
:100E20001092810080918100886080938100809180
:100E30008100816080938100E0E0F5E0E491F0E0E2
:100E4000EE0FFF1FE651FB4F85919491E4E1F5E031
:100E5000E491E09367046FCF1092B0001092B1005C
:100E60008091B00082608093B0008091B100816079
:100E70008093B100E0E0F5E0E491F0E0EE0FFF1FB9
:100E8000E651FB4F859194919093490580934805D5
:100E9000E4E1F5E0E491E0934A054DCF60E072E1D2
:100EA0008AE790E09801012E000C440B550B0E943C
:100EB000B41D29013A0181E0481A510861087108FE
:100EC000C13009F05CCF80918100887F8160809380
:100ED00081002FEF3FEFA90181149104A104B10417
:100EE00069F09801220F331FD7010E94D31D28EE0D
:100EF00033E040E050E00E94921D4ACF50928900BA
:100F0000409288002093690430936A0440936B04F4
:100F100050936C0480916F00826080936F00F2CEDA
:100F20004092B30020934B0530934C0540934D0500
:100F300050934E0580917000826080937000E2CEE5
:100F400085B5887F836085BD2FEF3FEFA9018114B0
:100F50009104A104B10409F423CFC3CF80E991E047
:100F6000909304018093030160E971E083E992E0CA
:100F70000E94640660E971E080E793E00E946406E5
:100F800060E971E083E992E00E94640660E971E043
:100F900080E793E00E94640688E00C94EF03CF9210
:100FA000DF92EF92FF920F931F93CF93DF93FC0199
:100FB000C48121E02093B704C093660410925405C5
:100FC000109253058385682B86E096E00E942806E0
:100FD000D0915305D13208F092C00E9489036B0171
:100FE0007C0180912205811165C082E080932205F9
:100FF00081E0809324058FEF8093210510924605B0
:10100000D0934505A7E9B4E0E5E2F5E080E0D81328
:1010100085C01092470580914705CC0FC82BC0931F
:10102000470580912305813009F07CC0109223058B
:101030000E9489036B017C01809147058093BB006E
:101040008091D9049091DA04A091DB04B091DC0482
:10105000892B8A2B8B2B99F00E9489030091D9044C
:101060001091DA042091DB043091DC046C197D09C5
:101070008E099F090617170728073907E0F18091A5
:10108000BC0083FDD9CF85EC8093BC000E9489030E
:101090006B017C0180912205823009F445C080916A
:1010A00021058F3F61F180912105803241F18091CE
:1010B000210525C08091D9049091DA04A091DB0428
:1010C000B091DC04892B8A2B8B2B09F48ACF0E94E8
:1010D00089030091D9041091DA042091DB04309146
:1010E000DC046C197D098E099F090617170728076C
:1010F000390708F076CF8091D8040E94B00510928D
:101100005405109253051092B704DF91CF911F91AF
:101110000F91FF90EF90DF90CF9008959D91919364
:101120008F5F75CF85EEB0CF8091D9049091DA04AE
:10113000A091DB04B091DC04892B8A2B8B2B09F462
:10114000A9CF0E9489030091D9041091DA0420915B
:10115000DB043091DC046C197D098E099F090617A8
:1011600017072807390708F095CFC5CF089590E0F5
:1011700080E008950F931F93CF938C01C62F0E9498
:10118000CF076C2F6460C8010E94CF076C2F6B7F64
:10119000C8010E94CF0783EC90E00197F1F7CF914F
:1011A0001F910F9108950F931F93CF93DF938C019D
:1011B000D62FC42F607F642B0E94BA0880E1D89F8D
:1011C000B00111246C2BC801DF91CF911F910F91B9
:1011D0000C94BA08CF93DF93CDB7DEB728970FB63C
:1011E000F894DEBF0FBECDBF98E0EBE0F1E0DE018A
:1011F000119601900D929A95E1F790912706961716
:1012000008F46FEF262F30E0220F331F41E050E04B
:101210004C0F5D1F240F351FF9016081680F606856
:1012200040E08EE196E028960FB6F894DEBF0FBE40
:10123000CDBFDF91CF910C94D30841E00E94D30839
:1012400081E090E00895FC0180819181009711F088
:101250000C947C1E08950F931F93CF93DF93EC01A2
:1012600088819981009759F02A813B812617370799
:1012700030F081E0DF91CF911F910F9108958B01A4
:101280006F5F7F4F0E94051F009759F099838883F5
:101290001B830A832C813D81232B59F7FC0110828B
:1012A000E8CF80E0E7CFEF92FF920F931F93CF93A9
:1012B000DF93EC017B018A01BA010E942B0928818E
:1012C0003981811114C02115310519F0C9010E941D
:1012D0007C1E198218821D821C821B821A82CE01FA
:1012E000DF91CF911F910F91FF90EF9008951D8393
:1012F0000C83B701C9010E94D41FF1CF0F931F9334
:10130000CF93DF9300D0CDB7DEB789E695E00E949A
:10131000AB04892B39F189E695E00E945704898353
:101320001A8200911C0610911D060F5F1F4FB80115
:1013300088E196E00E942B09882339F32091180652
:101340003091190680911C0690911D06BE016F5FB9
:101350007F4F820F931F0E94D41F10931D0600938E
:101360001C06D3CF0F900F90DF91CF911F910F915B
:1013700008950E94B70481110C947E090895FC0120
:10138000118210821382128215821482FB01019055
:101390000020E9F73197AF01461B570B0C94530916
:1013A000FB0101900020E9F73197AF01461B570B75
:1013B000DC01ED91FC910280F381E02D099463E45E
:1013C00071E089E695E00C94D009CF93DF930E94F9
:1013D0003005EC010E94DF098C0F9D1FDF91CF913A
:1013E0000895CF93DF93EAE2F6E04481558160816E
:1013F000718189E695E00E941B04EC010E94DF09DF
:101400008C0F9D1FDF91CF9108958F929F92AF9285
:10141000BF92EF92FF920F931F93CF93DF93CDB7BD
:10142000DEB7A1970FB6F894DEBF0FBECDBF7C012B
:10143000FA01CB0119A2223008F42AE08E010F5DD7
:101440001F4F822E912CB12CA12CBF01A50194011C
:101450000E94921DF901CA016A300CF5605DD80145
:101460006E938D01232B242B252B79F790E080E0C0
:10147000109721F0BD01C7010E94D009A1960FB6B7
:10148000F894DEBF0FBECDBFDF91CF911F910F91BA
:10149000FF90EF90BF90AF909F908F900895695C00
:1014A000DECFCF92DF92EF92FF920F931F93CF93F5
:1014B000DF936B01770FEE08FF084A30510511F5F5
:1014C0002AE0F7FE20C0EC01E881F9810190F0816B
:1014D000E02D6DE209958C0144275527BA014C197E
:1014E0005D096E097F092AE0CE010E94050A800F7E
:1014F000911FDF91CF911F910F91FF90EF90DF909F
:10150000CF900895242FB701A601DF91CF911F91AD
:101510000F91FF90EF90DF90CF900C94050ACF933E
:10152000DF93BC0189E695E00E94D009EC010E949E
:10153000DF098C0F9D1FDF91CF9108950E94F20269
:10154000892B49F486E491E00E948F0A1092590594
:1015500010925805089585E591E00C948F0A4F92FA
:101560005F926F927F928F929F92AF92BF92CF9233
:10157000DF92EF92FF920F931F93CF936B017C0149
:10158000742EAC019B010E948D1D67E671E08111F4
:1015900026C046015701E894B7F82FEF3FEF4FE719
:1015A0005FE7C501B4010E948D1D81110CC02FEFB2
:1015B0003FEF4FE75FE7C501B4010E94FE1A6BE6FB
:1015C00071E0181664F02FEF3FEF4FE75FE4C701BB
:1015D000B6010E94881D1816ACF46FE671E089E62A
:1015E00095E0CF911F910F91FF90EF90DF90CF90FA
:1015F000BF90AF909F908F907F906F905F904F9033
:101600000C94D0092FEF3FEF4FE75FECC701B60115
:101610000E94FE1A87FDE1CF20E030E0A901C7015A
:10162000B6010E94FE1A10E000E087FF0AC06DE2DA
:1016300089E695E00E94E3048C01F7FAF094F7F84C
:10164000F094C0E060E070E080E09FE37C1641F041
:1016500020E030E040E251E40E94E01CCF5FF6CF92
:10166000A70196010E94741C2B013C010E94591D88
:101670004B015C012AE0BC01A40189E695E00E94CF
:10168000050A7C01E00EF11ECC23D1F1C501B401A5
:101690000E94031B9B01AC01C301B2010E94731C99
:1016A0004B015C016EE289E695E00E94E304E80EDE
:1016B000F91EC15028F120E030E040E251E4C501BC
:1016C000B4010E94641B2B013C010E94591D4B0177
:1016D000B12CA12C2AE0B501A40189E695E00E9475
:1016E000050AE80EF91EC501B4010E94031B9B0107
:1016F000AC01C301B2010E94731C4B015C01D9CF44
:10170000C701CF911F910F91FF90EF90DF90CF9085
:10171000BF90AF909F908F907F906F905F904F9011
:1017200008950C94D00960E080E00E94EA0863E725
:1017300071E08EE196E00E94910B61E080E00E94F2
:10174000EA08EAE2F6E044815581608171818EE128
:1017500096E00C941B0485ED8093BC008091D90425
:101760009091DA04A091DB04B091DC040796A11DEE
:10177000B11D23E0B695A795979587952A95D1F742
:101780002091BC0024FD03C01092220508954091D1
:10179000D9045091DA046091DB047091DC04452B8C
:1017A000462B472B69F30097A105B10541F02AE2CA
:1017B0002A95F1F700C00197A109B109E1CF809105
:1017C000D8040C94B005809190049091910497FFF7
:1017D00003C0919581959109909391048093900411
:1017E0008EE092E00E948F0A6091900470919104C3
:1017F0004AE050E089E695E00E94510A8CE791E0CA
:101800000E948F0A60918E0470918F044AE050E02C
:1018100089E695E00E94510A20919004309191044C
:1018200080918E0490918F04281739070CF05AC0CC
:1018300087E891E00E948F0A60E082E00E94160330
:1018400060E086E00E94160360E085E00E941603D7
:1018500082E00E94EF0360E08AE00E94160360E0ED
:1018600087E00E94160360E08CE00E94160360E0AF
:101870008DE00E94160380915805909159058031A2
:10188000974230F08FE097E2909359058093580586
:10189000809159058F93809158058F9381EC91E049
:1018A0009F938F9382E994E09F938F930E940B20E4
:1018B00061E088E00E94EA0866EC71E08EE196E063
:1018C0000E94910B61E08CE00E94EA080F900F905B
:1018D0000F900F900F900F9062E974E08EE196E008
:1018E0000C94910B84EA91E00E948F0A61E086E0FB
:1018F0000E94160361E085E00E941603809158055E
:1019000090915905019690935905809358058091BF
:101910005A0564EF71E080FD0EC083E992E00E94F9
:10192000640661E08AE00E94160361E087E00E949D
:10193000160361E099CF80E793E00E94640660E0BF
:101940008AE00E94160360E087E00E94160360E0D0
:101950008CE00E94160361E08BCFCF92DF92EF9272
:10196000FF92CF93DF93EC016BEC71E089E695E099
:101970000E94910BF12CE12C2AE0B701AE0189E61F
:1019800095E00E94050AC701BE010E94031B2AE0E0
:1019900038E240EA5BE30E94641B6B017C0164ED6A
:1019A00071E089E695E00E94910B42E0C701B60123
:1019B0000E94AF0A6CEE71E089E695E00E94910BFF
:1019C000BE0172504AE050E089E695E00E94510A5B
:1019D00020E030E040E250E4C701B6010E94FE1A68
:1019E00018160CF493C021EE3AE744E050E4C70126
:1019F000B6010E94731C20E030E04FEA53E40E94DD
:101A0000641B28EF38E24CED5EE30E94E01C20E00E
:101A100030E04FEA53E40E94731C609373047093A8
:101A20007404809375049093760469EF71E089E6FD
:101A300095E00E94910B6091730470917404809101
:101A400075049091760442E00E94AF0AC09073043E
:101A5000D0907404E0907504F090760420E030E0BB
:101A6000A901C701B6010E94881D20E030E040E0D6
:101A70005FE387FD65C0C701B6010E94741C0E9428
:101A8000521D70939104609390046BE072E089E6BC
:101A900095E00E94910B60919004709191044AE04E
:101AA00050E089E695E00E94510A809191048F935D
:101AB000809190048F938AE192E09F938F931F927D
:101AC00086E08F9380E894E09F938F930E94DB1FC2
:101AD0006FE172E089E695E00E94910B60E874E0A6
:101AE00089E695E00E94910B8DB79EB708960FB6D8
:101AF000F8949EBF0FBE8DBF8DE292E0DF91CF9133
:101B0000FF90EF90DF90CF900C948F0A20E030E0B0
:101B100040E250E4C701B6010E94731C20E030E0AF
:101B200041EE53E40E94641B28E23CE54FE05FE392
:101B30000E94E01C20E030E0A9010E94741C6DCFDF
:101B4000C701B6010E94731C9ACF80918D0488232F
:101B500009F185E10E94750390938C0480938B04B6
:101B600080918B0490918C040E94AD0C60E080E029
:101B70000E94EA086FE272E08EE196E00E94910B0B
:101B800060E083E00E94EA0860E874E08EE196E09D
:101B90000C94910B80E1DECFCF92DF92EF92FF9217
:101BA000CF93DF93EC01BC01990F880B990B0E9436
:101BB000051B20E030E04AE754E40E94641B20E06B
:101BC00030EC4FE754E40E94E01C6B017C010E9462
:101BD000521D60938E0470938F047F936F9384E300
:101BE00092E09F938F931F9285E08F938BE794E011
:101BF0009F938F930E94DB1F68E372E089E695E074
:101C00000E94910B40E150E0BE0189E695E00E9400
:101C1000510A6CE472E089E695E00E94910B42E083
:101C2000C701B6010E94AF0A63E672E089E695E05B
:101C30000E94910B60918E0470918F044AE050E0F5
:101C400089E695E00E94510A68E772E089E695E02E
:101C50000E94910B8DB79EB708960FB6F8949EBF61
:101C60000FBE8DBF8BE794E0DF91CF91FF90EF9097
:101C7000DF90CF900C948F0A85E10E9475030E943B
:101C8000CC0D60E088E00E94EA0861E972E08EE134
:101C900096E00E94910B60E08CE00E94EA086BE7FE
:101CA00074E08EE196E00C94910B8F929F92AF922C
:101CB000BF92CF92DF92EF92FF920F931F93CF9339
:101CC000DF9300D000D000D0CDB7DEB76C0166E95D
:101CD00072E089E695E00E94910BF12CE12C2AE05C
:101CE000B701A60189E695E00E94050AC701B60181
:101CF0000E94031B20E030E043E553E40E94731C84
:101D000026E636E64EED50E40E94641B20E030E00B
:101D100042EA53E40E94E01C2AE939E941EA50E42E
:101D20000E94741C60937704709378048093790404
:101D300090937A0460EA72E089E695E00E94910B44
:101D400060917704709178048091790490917A047D
:101D500042E00E94AF0A20E030E040E251E46091AE
:101D60007704709178048091790490917A040E94AC
:101D7000641B6B017C0120E030E0A9010E94881DFA
:101D800020E030E040E05FE387FD72C0C701B601AC
:101D90000E94741C0E94521D0E94051B20E030E02E
:101DA00040E251E40E94E01C4B015C0161EB72E0F7
:101DB00089E695E00E94910B42E0C501B4010E94C2
:101DC000AF0ACE0101967C018C0121E044E0C501FF
:101DD000B4010E94A918F70101900020E9F731979A
:101DE000EE19FF09AFEFBFEFAC0FBD1FAE0FBF1F66
:101DF0008C918E3241F43197EE0DFF1D808180323F
:101E000011F480E38083FF92EF9284EC92E09F9341
:101E10008F931F9285E08F9386E894E09F938F9332
:101E20000E94DB1F68EC72E089E695E00E94910B4E
:101E300066E874E089E695E00E94910B0E94DF0954
:101E40000FB6F894DEBF0FBECDBF26960FB6F8943E
:101E5000DEBF0FBECDBFDF91CF911F910F91FF90DD
:101E6000EF90DF90CF90BF90AF909F908F900895AC
:101E7000C701B6010E94731C8DCF80918D04882309
:101E800009F185E10E94750390938C0480938B0483
:101E900080918B0490918C040E94550E61E080E04B
:101EA0000E94EA0867ED72E08EE196E00E94910BD5
:101EB00061E084E00E94EA0866E874E08EE196E062
:101EC0000C94910B81E1DECFBF92CF92DF92EF9223
:101ED000FF920F931F93CF93DF93CDB7DEB7609739
:101EE0000FB6F894DEBF0FBECDBF89E695E00E9425
:101EF000AB04181619060CF06CC489E695E00E9434
:101F0000570489831A8200911606109117060F5FF5
:101F10001F4FB80182E196E00E942B09882399F0B7
:101F200020911206309113068091160690911706A3
:101F3000BE016F5F7F4F820F931F0E94D41F1093CB
:101F40001706009316066CED72E0CE0101960E9412
:101F5000BF0920911606309117064D815E81241726
:101F60003507A0F08091120690911306009771F04A
:101F700069817A816115710549F0241B350B820F47
:101F8000931F0E94CB1F11E0892B09F010E0CE01B6
:101F900001960E942309112309F40DC481EE92E0F9
:101FA0000E948F0ABB24B394109172041111FBC3D9
:101FB0000E94DF098BEE93E00E94E50987EB93E036
:101FC0000E94E5098EEA93E00E9430050E94F10923
:101FD00081E893E00E94E50987E793E00E94E50924
:101FE0008DE493E00E94E5098DE393E00E94E5090A
:101FF0008CE193E00E94E5098BEF92E00E94E509F5
:1020000088ED92E00E94E50985EB92E00E94E509E7
:1020100089E992E00E94E5098DE792E00E94E509D6
:102020008DE692E00E94E5098BE492E00E94E509CA
:1020300080E492E00E94300580917104882309F4C5
:1020400041C08AE193E00E948F0A109271048BE3F1
:1020500092E00E94E50985E292E00E94E50982E1B2
:1020600092E00E94E50983EF91E00E94E5098EEE7F
:1020700091E00E94E50980EE91E00E943005809198
:102080008D04882331F18EE393E00E948F0A88EC5F
:1020900091E00E94E5098FEA91E00E94E50980E85D
:1020A00091E00E94E50982E691E00E94E50989E657
:1020B00095E00E94AB04892B79F089E695E00E94B7
:1020C0005704F5CF8AE293E00E948F0AB092710420
:1020D000BECF82E493E0D9CF0E94DF0989E695E084
:1020E0000E94AB04892B29F50E94E103C0905C0596
:1020F000D0905D05E0905E05F0905F059B01AC011E
:102100002C193D094E095F0969017A013AEFC3169E
:10211000D104E104F10410F360935C0570935D0554
:1021200080935E0590935F05D9CF89E695E00E9484
:1021300057040E947904FC0197FD65C08D3291051A
:1021400019F0C0970A9788F7C12CD12C7601E1309D
:10215000F105D9F0ED32F10509F453C0CF01C09774
:102160000A9798F4AAE0B0E0A70196010E94221C09
:102170006F01FF0FEE08FF08C60ED71EE81EF91EFE
:1021800040E3C41AD108E108F10889E695E00E940D
:1021900057040E947904FC01C0970A97C0F2E1300D
:1021A000F105A9F2112341F0F094E094D094C09489
:1021B000C11CD11CE11CF11C860189E894E00E943D
:1021C00030054AE050E0B60189E695E00E94510AE8
:1021D0000E94DF090A30110509F4B6C10CF043C0B2
:1021E0000430110509F48AC12CF50130110509F4F8
:1021F00013C16CF4C114D10409F4F7C086E494E06F
:1022000008C111E0C2CFC12CD12C7601D5CF02304C
:10221000110509F470C10330110581F700E110E0E8
:10222000C8010E94CC0D0F5E1F4F0D31F4E01F0757
:10223000B9F7BACE0730110509F473C154F405306B
:10224000110509F45EC106301105C1F60E94A50D05
:10225000ABCE0830110509F474C10930110571F6CF
:102260000E949E0AA1CE0031110509F49DCE0CF00A
:1022700079C00D30110509F46AC10CF495CE0E3009
:10228000110509F467C10F30110509F0B7CF6AEFE6
:1022900070E080E090E00E94AE030E943C0E0E943D
:1022A000A50D0E943D0F0E949E0A0E94E10300912D
:1022B0005C0510915D0520915E0530915F056B0115
:1022C0007C01C01AD10AE20AF30A97018601083E8E
:1022D000134021053105A8F160935C0570935D05FD
:1022E00080935E0590935F0580915A0590915B0500
:1022F000019690935B0580935A050E94E30B67E576
:1023000073E089E695E00E94910B40915A05509147
:102310005B0570E060E02AE089E695E00E94050A2E
:1023200066E673E089E695E00E94910B40915805BE
:102330005091590570E060E02AE089E695E00E943E
:10234000050A89E695E00E94AB04181619060CF000
:102350009ECF89E695E00E9457048F7D813509F074
:1023600096CF22CE0331110509F456C1FCF4013198
:10237000110509F4F2C00231110509F03FCF0E94A6
:10238000570689E695E00E94AB04181619060CF072
:10239000EEC089E695E00E9457048F7D813509F0F3
:1023A000E6C087E893E00E948F0AFECD0431110554
:1023B00009F4BFC10336110509F020CF87E294E08C
:1023C0000E94E50960ED77E080E090E00E94AE03B6
:1023D00088E194E00E94E50960ED77E080E090E01C
:1023E0000E94AE03B0927204DFCD89E794E00E94B0
:1023F000E50968EE73E080E090E00E94AE03F6012C
:10240000099564E670E080E090E00E94AE038EE5FE
:1024100094E00E94E509C8CD60E080E00E94EA08EF
:1024200067E473E08EE196E00E94910B60910001F9
:1024300070910101CB0101969093010180930001FD
:102440004AE050E08EE196E00E94510A60E088E0A8
:102450000E94EA086BE473E08EE196E00E94910B23
:102460006091000170910101CB01019690930101EF
:10247000809300014AE050E08EE196E00E94510A0C
:1024800061E080E00E94EA086FE473E08EE196E08C
:102490000E94910B6091000170910101CB010196A6
:1024A00090930101809300014AE050E08EE196E0B4
:1024B0000E94510A61E088E00E94EA0863E573E047
:1024C0008EE196E00E94910B6091000170910101F4
:1024D000CB01019690930101809300014AE050E006
:1024E0008EE196E00E94510A64EF71E080E090E096
:1024F0000E94AE0359CD0E94AE0756CD0E943C0EFD
:1025000053CD00E110E010938C0400938B04C801BC
:102510000E94AD0C0F5E1F4F0D3124E0120799F79A
:1025200043CD00E110E010938C0400938B04C801AC
:102530000E94550E0F5E1F4F0D3134E0130799F7BF
:1025400033CD0E943D0F30CD0E94E30B2DCDB092D4
:1025500057052ACD1092570527CD80918D048823E9
:1025600019F010928D0420CDB0928D041DCDCE01B6
:1025700001967C016C0110E0812F0E947503F60129
:10258000819391936F011F5F1830B1F70E94DF09AB
:1025900083EA93E00E948F0A10E000E069E472E0B1
:1025A00089E695E00E94910BF701C190D1907F01DF
:1025B000FFEFCF16D10409F080F462ED73E089E6F5
:1025C00095E00E94910B20E1C216D10430F462ED37
:1025D00073E089E695E00E94910BA60170E060E04F
:1025E00020E189E695E00E94050A0730110531F0E7
:1025F0006FE872E089E695E00E94910B0F5F1F4F34
:102600000830110559F60E94DF096AEF70E080E09A
:1026100090E00E94AE03B5CE0E94E10300915C05FC
:1026200010915D0520915E0530915F056B017C0185
:10263000C01AD10AE20AF30A970186010D3411404B
:102640002105310508F464C060935C0570935D0555
:1026500080935E0590935F0585E10E9475036C0190
:1026600080E10E9475037C0181E10E9475038C0169
:1026700064ED73E089E695E00E94910B4AE050E03A
:10268000B60189E695E00E94510A68E472E089E6A5
:1026900095E00E94910B40E150E0B60189E695E09B
:1026A0000E94510A6EED73E089E695E00E94910B5D
:1026B0004AE050E0B70189E695E00E94510A68E4DB
:1026C00072E089E695E00E94910B40E150E0B7018D
:1026D00089E695E00E94510A6FEE73E089E695E085
:1026E0000E94910B4AE050E0B80189E695E00E9413
:1026F000510A68E472E089E695E00E94910B40E19E
:1027000050E0B80189E695E00E94510A0E94DF0975
:1027100089E695E00E94AB04181619060CF07CCFF0
:1027200089E695E00E9457048F7D813509F074CFCA
:102730003BCC80E094E00E948F0A0E94570689E615
:1027400095E00E94AB041816190644F489E695E05A
:102750000E9457048F7D813509F423CE0E94DF0942
:1027600002E010E061E0802F0E9416036AEF70E043
:1027700080E090E00E94AE0360E0802F0E9416038C
:1027800062E474E089E695E00E94910B4AE050E033
:10279000B80189E695E00E94510A0F5F1F4F0E3085
:1027A000110501F7CCCF50E040E065E471E082E133
:1027B00096E00E945309809116069091170645975E
:1027C00040F050E040E065E471E082E196E00E9474
:1027D000530960960FB6F894DEBF0FBECDBFDF91F0
:1027E000CF911F910F91FF90EF90DF90CF90BF900E
:1027F00008951F920F920FB60F9211242F933F93BB
:102800008F939F93AF93BF938091610590916205E1
:10281000A0916305B09164053091600523E0230F1A
:102820002D3758F50196A11DB11D209360058093A9
:10283000610590936205A0936305B0936405809150
:10284000650590916605A0916705B09168050196B0
:10285000A11DB11D8093650590936605A093670542
:10286000B0936805BF91AF919F918F913F912F9148
:102870000F900FBE0F901F90189526E8230F029619
:10288000A11DB11DD2CF1F920F920FB60F9211242E
:102890002F933F934F935F936F937F938F939F9368
:1028A000AF93BF93EF93FF9380914B0590914C05AD
:1028B000A0914D05B0914E05892B8A2B8B2BD1F120
:1028C00090914A05E0914805F0914905808189275A
:1028D000808380914B0590914C05A0914D05B0915E
:1028E0004E05181619061A061B069CF480914B0516
:1028F00090914C05A0914D05B0914E050197A1090D
:10290000B10980934B0590934C05A0934D05B0936E
:102910004E05FF91EF91BF91AF919F918F917F9164
:102920006F915F914F913F912F910F900FBE0F903C
:102930001F901895809102010E94EF03EACF1F9229
:102940000F920FB60F9211242F933F934F935F93E3
:102950006F937F938F939F93AF93BF93EF93FF9367
:1029600089E695E00E94C104FF91EF91BF91AF917C
:102970009F918F917F916F915F914F913F912F9197
:102980000F900FBE0F901F9018951F920F920FB6C9
:102990000F9211242F938F939F93EF93FF93E091C6
:1029A0007905F0917A058081E0917F05F0918005AD
:1029B00082FD1BC09081809182058F5F8F73209173
:1029C0008305821741F0E0918205F0E0E759FA4F64
:1029D000958F80938205FF91EF919F918F912F9119
:1029E0000F900FBE0F901F9018958081F4CF1F920B
:1029F0000F920FB60F9211242F933F934F935F9333
:102A00006F937F938F939F93AF93BF93EF93FF93B6
:102A10008091B900887F803609F44AC0F0F5883289
:102A200009F4A7C018F5803109F49BC0B8F48823D5
:102A300009F4F9C0883009F494C0FF91EF91BF9177
:102A4000AF919F918F917F916F915F914F913F9146
:102A50002F910F900FBE0F901F901895883109F499
:102A600088C0803251F78093210514C0803409F466
:102A70009DC040F48033B9F38833F9F68093210583
:102A800085ECB0C0803509F485C0883509F496C05E
:102A9000883499F60E94AB0BD0CF883909F48CC0EA
:102AA00038F5883729F050F4883611F0803729F648
:102AB00083E0809322051092200557C0883809F4DE
:102AC0007BC0803919F0803809F0B7CF809120059C
:102AD000803208F071C0E091200581E08E0F809374
:102AE00020058091BB00F0E0E050FB4F80833DC0AB
:102AF000803B39F0E0F4803A09F479C0883A09F073
:102B00009CCF84E0809322051092FF041092FE0473
:102B1000E0915105F091520509958091FE048111D3
:102B20000FC081E08093FE041092DE0409C0803C57
:102B300009F4A6CF883C09F4A3CF883B09F07DCFE8
:102B4000E091FF0481E08E0F8093FF04F0E0E252F9
:102B5000FB4F80818093BB009091FF048091FE0425
:102B600029C0809147058093BB0085EC8093BC0011
:102B700064CF9091460580914505981758F5E091EE
:102B8000460581E08E0F80934605F0E0EB5DFA4F3D
:102B90008081E9CFE091460581E08E0F8093460564
:102BA0008091BB00F0E0EB5DFA4F80839091460589
:102BB000809145059817C8F285E8D8CFE091460581
:102BC00081E08E0F809346058091BB00F0E0EB5DC5
:102BD000FA4F80838091240581115CCF81E080933E
:102BE000230584EA8093BC001092220526CF85EC51
:102BF0008093BC001092220580912005803230F431
:102C0000E0912005F0E0E050FB4F1082609120053C
:102C100070E0E0914F05F091500580E095E0099556
:102C2000109220050ACF1092210534CFE9E6F5E095
:102C30001382128288EE93E0A0E0B0E08483958353
:102C4000A683B78327E131E03183208325EC30E090
:102C50003587248724EC30E03787268720EC30E066
:102C6000318B208B21EC30E0338B228B22EC30E057
:102C7000358B248B26EC30E0378B268B118E128E11
:102C8000138E148EE6E0F6E013821282848395831D
:102C9000A683B78389E291E09183808365E474E041
:102CA0008AE296E00E94BF09EEE1F6E0138212820A
:102CB0008BE391E09183808387E2848380E1808746
:102CC00082E08187128688E0838765E471E088E18D
:102CD00096E00E94BF0965E471E082E196E00C9401
:102CE000BF09789484B5826084BD84B5816084BD59
:102CF00085B5826085BD85B5816085BD80916E009A
:102D0000816080936E0010928100809181008260CA
:102D10008093810080918100816080938100809107
:102D200080008160809380008091B10084608093F6
:102D3000B1008091B00081608093B00080917A00F2
:102D4000846080937A0080917A00826080937A0018
:102D500080917A00816080937A0080917A00806807
:102D600080937A001092C10061E08AE00E944403DF
:102D700061E08DE00E94440361E087E00E9444032B
:102D800061E08CE00E94440361E086E00E9444031D
:102D900061E085E00E94440362E084E00E94440315
:102DA00060E082E00E94160360E08AE00E94160361
:102DB00060E08DE00E94160360E087E00E94160349
:102DC00060E08CE00E94160360E086E00E9416033B
:102DD00060E085E00E94160361E08DE00E944403FC
:102DE000E0917905F0917A0582E08083E0917505A4
:102DF000F09176051082E0917705F091780580E1F9
:102E0000808310928105E0917D05F0917E0586E03A
:102E10008083E0917B05F0917C05808180618083D7
:102E2000E0917B05F0917C05808188608083E09152
:102E30007B05F0917C05808180688083E0917B0533
:102E4000F0917C0580818F7D80830E94DF098BEB70
:102E500094E00E94E50986EA94E00E94E5098CE985
:102E600094E00E9430050E94F1090E94DF0910924F
:102E700056051092550510925405109253050E9464
:102E800092058DEE93E090935205809351058EEE5E
:102E900093E09093500580934F0510922306809104
:102EA0002706823018F098E0909323069091280628
:102EB000992339F0813029F480912306846080932E
:102EC000230662E370E080E090E00E94AE03609130
:102ED00029068EE196E00E94CF0768EE73E080E05D
:102EE00090E00E94AE0360E38EE196E00E94BA0893
:102EF000CBE4D6E4CE010197F1F760E38EE196E0F2
:102F00000E94BA082197F1F760E38EE196E00E94F3
:102F1000BA0883E592E00197F1F760E28EE196E06E
:102F20000E94BA0860912306606240E08EE196E05C
:102F30000E94D30884E08093240640E06CE08EE198
:102F400096E00E94D30840E061E08EE196E00E94A6
:102F5000D308CBE3DFE1CE010197F1F782E0809364
:102F6000250640E066E08EE196E00E94D30840E04E
:102F700062E08EE196E00E94D3082197F1F788E0A5
:102F80008093290660E08EE196E00E94CF070E94C0
:102F9000930B0E94F202892B41F581E08093570543
:102FA00081E594E00E948F0A86E990E09093040105
:102FB0008093030166E970E083E992E00E94640671
:102FC00066E970E080E793E00E94640666E970E0DD
:102FD00083E992E00E94640666E970E080E793E08E
:102FE0000E94640688E00E94EF030E94930B61E058
:102FF0008AE00E94160361E087E00E94160361E008
:103000008CE00E94160361E08DE00E9416030E948E
:10301000AE0764EF71E080E090E00E94AE0360E0F4
:103020008AE00E94160360E087E00E94160360E0D9
:103030008CE00E94160360E08DE00E9416030E945F
:10304000640F62E370E080E090E00E94AE030E94B3
:10305000640F62E370E080E090E00E94AE030E94A3
:10306000640F62E370E080E090E00E94AE030E9493
:10307000640F62E370E080E090E00E94AE030E9483
:10308000640F62E370E080E090E00E94AE030E9473
:103090003C0E0E94A50D0E943D0F0E949E0A0E94B8
:1030A000E10300915C0510915D0520915E05309172
:1030B0005F056B017C01C01AD10AE20AF30A97018D
:1030C0008601083E13402105310508F4B8CF60930E
:1030D0005C0570935D0580935E0590935F0580911C
:1030E0005A0590915B05019690935B0580935A0574
:1030F0000E94E30B67E573E089E695E00E94910B7F
:1031000040915A0550915B0570E060E02AE089E645
:1031100095E00E94050A66E673E089E695E00E9464
:10312000910B409158055091590570E060E02AE0FC
:1031300089E695E00E94050A82CF82E196E00E942E
:10314000230988E196E00E9423098AE296E00C9424
:103150002309EF920F931F93CF93DF93E80134E09D
:1031600047FD34E1042E000C550B57FF03C0519569
:1031700041955109E32E022F242FAE010E94C7185A
:10318000CE01DF91CF911F910F91EF900895A9E0AB
:10319000B0E0EDECF8E10C94331C6A01F22EB02E95
:1031A000102FFBE3AF2EA01608F41BE31F5F012FC7
:1031B00027E0AE014F5F5F4F0E94261ABC01898154
:1031C000982F9970913009F43FC09BE2E1FC04C054
:1031D0009E2D9170E0FC3AC05E2D5071E82FE87092
:1031E00083FF46C084E0911101C083E0EF2DE81B0E
:1031F0008F1508F0E0E0D6018E2F20E2552351F123
:10320000992329F0D6019C93C60101966C01960181
:103210002D5F3F4FE2FE24C08EE4D6018C9391E4F3
:1032200011969C93119712968C93D9018E2F90E250
:1032300081111BC0E20FF32FF11D10828EEF9FEF63
:103240002996ECE00C944F1C9DE2C6CF90E2C4CFCF
:103250002D9381508111FCCFCE0ED11CE0E0D0CF58
:103260008EE6D6018C9391E6DBCF9D938150E0CF23
:10327000482F447082FF3DC084E0911101C083E07B
:103280008F1510F4EF2DE81BD6018E2F20E2552369
:1032900009F1992329F0D6019C93C60101966C018E
:1032A00096012D5F3F4FE2FE1BC089E4D6018C934F
:1032B0008EE411968C93119786E412968C93D90123
:1032C0008E2F90E2882309F4B5CF9D938150FACFD9
:1032D0002D9381508111FCCFCE0ED11CE0E0D9CFCF
:1032E00089E6D6018C938EE611968C93119786E62B
:1032F000E4CF9B0177FF02C030E020E0A1E0B0E026
:10330000911102C0B0E0A0E0F9013196AE0FBF1FED
:103310008B2C912CBB2009F461C05401EFEFAE1A45
:10332000BE0AAA0DBB1DFA161B0619F014F04F2D8C
:103330004A1B511188C0E3FC59C07601A42FB0E2AA
:10334000A1114FC0C40ED11C992309F45BC040E009
:10335000D6011196F60190836D01552309F448C0FA
:10336000012F060F9A81582F507184FF03C09133AB
:1033700009F4015010160CF047C0093008F008E0BD
:10338000EEE2FE2E5B01A01AB108850191948194B2
:1033900091082F3F320729F4D601FC92F6013196AD
:1033A0006F016217730794F1021713077CF5DB01B5
:1033B000A21BB30BAA24A394B12CAC0EBD1EAA0D64
:1033C000BB1D11968C9121503109D60111962815FB
:1033D0003905F4F0F60180836D01DBCFB12CA12C0F
:1033E000A0CFF701B1937F01A150AACF9111B0CF27
:1033F000D601942F50E302C05D9391509111FCCF00
:10340000C40ED11C40E0ACCF01E0BACF80E3DBCFEB
:103410006217730731F4963388F4953311F455230A
:1034200069F0F6018083FD01842F90E2811108C0CC
:10343000A40FB11D1C9290E080E002CF81E3F1CF98
:1034400091938150F3CF911183CF8ACF283008F028
:1034500027E03327DA01990F311D87FD916000962F
:103460006105710539F432602E5F3D9330E32A9592
:10347000E1F708959F3F30F080387105610509F04C
:103480003C5F3C5F3D93913008F08068911DDF9375
:10349000CF931F930F93FF92EF92192F987F9695DA
:1034A000E92F96959695E90FFF27EE53FF4F992741
:1034B0003327EE24FF24A701E70105900894079421
:1034C00028F4360FE71EF81E491F511D660F771F9F
:1034D000881F991F0694A1F70590079428F4E70E1A
:1034E000F81E491F561FC11D770F881F991F661FA1
:1034F0000694A1F70590079428F4F80E491F561F6B
:10350000C71FD11D880F991F661F771F0694A1F74B
:103510000590079420F4490F561FC71FD81F990F15
:10352000661F771F881F0694A9F78491109517705E
:1035300041F0D695C79557954795F794E7941A9516
:10354000C1F7E8E6F0E06894159015913591659122
:10355000959105907FE27395E118F10A430B560BA4
:10356000C90BD009C0F7E10CF11E431F561FC91F3C
:10357000D01D7EF4703311F48A95E6CFE8940150A3
:1035800030F0080F0AF40027021708F4202F2395C3
:10359000022F7A3328F079E37D932A95E9F710C05A
:1035A0007D932A9589F60694979567953795179593
:1035B0001794E118F10A430B560BC90BD00998F088
:1035C00023957E9173957A3308F070E37C932013F2
:1035D000B8F77E9170617D9330F0839571E37D93B0
:1035E00070E32A95E1F71124EF90FF900F911F915E
:1035F000CF91DF91992787FD909508950E94401BF8
:1036000008F481E00895E89409C097FB3EF4909592
:103610008095709561957F4F8F4F9F4F9923A9F0AB
:10362000F92F96E9BB279395F6958795779567953A
:10363000B795F111F8CFFAF4BB0F11F460FF1BC07E
:103640006F5F7F4F8F4F9F4F16C0882311F096E911
:1036500011C0772321F09EE8872F762F05C06623BF
:1036600071F096E8862F70E060E02AF09A95660F78
:10367000771F881FDAF7880F9695879597F9089531
:10368000990F0008550FAA0BE0E8FEEF1616170673
:10369000E807F907C0F012161306E407F50798F0DB
:1036A000621B730B840B950B39F40A2661F0232BF4
:1036B000242B252B21F408950A2609F4A140A69570
:1036C0008FEF811D811D08950E94771B0C94E81BCC
:1036D0000E94DA1B38F00E94E11B20F0952311F0C4
:1036E0000C94D11B0C94D71B11240C941C1C0E940D
:1036F000F91B70F3959FC1F3950F50E0551F629F22
:10370000F001729FBB27F00DB11D639FAA27F00D3A
:10371000B11DAA1F649F6627B00DA11D661F829F61
:103720002227B00DA11D621F739FB00DA11D621F46
:10373000839FA00D611D221F749F3327A00D611D63
:10374000231F849F600D211D822F762F6A2F112445
:103750009F5750409AF0F1F088234AF0EE0FFF1F78
:10376000BB1F661F771F881F91505040A9F79E3FCF
:10377000510580F00C94D11B0C941C1C5F3FE4F3AA
:10378000983ED4F3869577956795B795F795E79525
:103790009F5FC1F7FE2B880F911D9695879597F92E
:1037A000089597F99F6780E870E060E008959FEFC3
:1037B00080EC089500240A941616170618060906C8
:1037C000089500240A941216130614060506089597
:1037D000092E0394000C11F4882352F0BB0F40F41F
:1037E000BF2B11F460FF04C06F5F7F4F8F4F9F4F5F
:1037F000089557FD9058440F551F59F05F3F71F0E1
:103800004795880F97FB991F61F09F3F79F0879547
:103810000895121613061406551FF2CF4695F1DFD0
:1038200008C0161617061806991FF1CF8695710560
:10383000610508940895E894BB2766277727CB0194
:1038400097F908950E94641CA59F900DB49F900D58
:10385000A49F800D911D112408952F923F924F92A5
:103860005F926F927F928F929F92AF92BF92CF9210
:10387000DF92EF92FF920F931F93CF93DF93CDB719
:10388000DEB7CA1BDB0B0FB6F894DEBF0FBECDBF91
:1038900009942A88398848885F846E847D848C8462
:1038A0009B84AA84B984C884DF80EE80FD800C816B
:1038B0001B81AA81B981CE0FD11D0FB6F894DEBF4E
:1038C0000FBECDBFED010895A29FB001B39FC0010F
:1038D000A39F700D811D1124911DB29F700D811D3C
:1038E0001124911D08955058BB27AA270E948B1CB4
:1038F0000C94E81B0E94DA1B38F00E94E11B20F0B8
:1039000039F49F3F19F426F40C94D71B0EF4E0957C
:10391000E7FB0C94D11BE92F0E94F91B58F3BA174F
:10392000620773078407950720F079F4A6F50C94D5
:103930001B1C0EF4E0950B2EBA2FA02D0B01B90124
:1039400090010C01CA01A0011124FF27591B99F015
:10395000593F50F4503E68F11A16F040A22F232F21
:10396000342F4427585FF3CF469537952795A79571
:10397000F0405395C9F77EF41F16BA0B620B730B18
:10398000840BBAF09150A1F0FF0FBB1F661F771F89
:10399000881FC2F70EC0BA0F621F731F841F48F43E
:1039A000879577956795B795F7959E3F08F0B0CFC7
:1039B0009395880F08F09927EE0F979587950895AE
:1039C0000E94F41C0C94E81B0E94E11B58F00E941A
:1039D000DA1B40F029F45F3F29F00C94D11B511100
:1039E0000C941C1C0C94D71B0E94F91B68F39923A0
:1039F000B1F3552391F3951B550BBB27AA276217EB
:103A00007307840738F09F5F5F4F220F331F441FF7
:103A1000AA1FA9F335D00E2E3AF0E0E832D091502B
:103A20005040E695001CCAF72BD0FE2F29D0660F18
:103A3000771F881FBB1F261737074807AB07B0E85B
:103A400009F0BB0B802DBF01FF2793585F4F3AF061
:103A50009E3F510578F00C94D11B0C941C1C5F3FC9
:103A6000E4F3983ED4F3869577956795B795F795E7
:103A70009F5FC9F7880F911D9695879597F90895CF
:103A8000E1E0660F771F881FBB1F6217730784076B
:103A9000BA0720F0621B730B840BBA0BEE1F88F77A
:103AA000E09508950E94591D6894B1110C941C1C56
:103AB00008950E94011C88F09F5798F0B92F99270C
:103AC000B751B0F0E1F0660F771F881F991F1AF009
:103AD000BA95C9F714C0B13091F00E941B1CB1E037
:103AE00008950C941B1C672F782F8827B85F39F036
:103AF000B93FCCF3869577956795B395D9F73EF4A2
:103B000090958095709561957F4F8F4F9F4F089549
:103B10000E94401B08F48FEF08950E94401B880B01
:103B2000990B0895A1E21A2EAA1BBB1BFD010DC023
:103B3000AA1FBB1FEE1FFF1FA217B307E407F5075D
:103B400020F0A21BB30BE40BF50B661F771F881F39
:103B5000991F1A9469F760957095809590959B01CF
:103B6000AC01BD01CF010895052E97FB1EF4009412
:103B70000E94CB1D57FD07D00E94921D07FC03D069
:103B80004EF40C94CB1D50954095309521953F4FA8
:103B90004F4F5F4F089590958095709561957F4F39
:103BA0008F4F9F4F08950E94641CB7FF0895821B9A
:103BB000930B0895EE0FFF1F0590F491E02D0994EB
:103BC0000F931F93CF93DF938230910510F482E01F
:103BD00090E0E0913206F091330630E020E0B0E072
:103BE000A0E0309799F42115310509F44AC0281B4B
:103BF000390B24303105D8F58A819B816115710517
:103C000089F1FB0193838283FE0111C040815181C0
:103C10000281138148175907E0F04817590799F4B2
:103C2000109761F012960C93129713961C9332968C
:103C3000CF01DF91CF911F910F910895009332062C
:103C400010933306F4CF2115310551F04217530775
:103C500038F0A901DB019A01BD01DF01F801C1CFF4
:103C6000EF01F9CF9093330680933206CDCFFE015A
:103C7000E20FF31F819391932250310939832883F6
:103C8000D7CF2091300630913106232B41F420917B
:103C900007013091080130933106209330062091BE
:103CA0000501309106012115310541F42DB73EB7CC
:103CB0004091090150910A01241B350BE091300617
:103CC000F0913106E217F307A0F42E1B3F0B2817E3
:103CD000390778F0AC014E5F5F4F2417350748F085
:103CE0004E0F5F1F5093310640933006819391939E
:103CF0009FCFF0E0E0E09CCFCF93DF930097E9F017
:103D0000FC01329713821282A0913206B0913306E1
:103D1000ED0130E020E01097A1F420813181820F85
:103D2000931F20913006309131062817390709F08A
:103D300061C0F0933106E0933006DF91CF91089592
:103D4000EA01CE17DF07E8F54A815B819E01411544
:103D50005105B1F7E901FB83EA8349915991C40FF9
:103D6000D51FEC17FD0761F4808191810296840FC5
:103D7000951FE90199838883828193819B838A833C
:103D8000F0E0E0E012968D919C9113970097B9F5C1
:103D90002D913C911197CD010296820F931F209196
:103DA0003006309131062817390739F6309751F52A
:103DB0001092330610923206B0933106A09330066B
:103DC000BCCFD383C28340815181840F951FC81714
:103DD000D90761F44E5F5F4F88819981480F591F61
:103DE000518340838A819B8193838283211531058E
:103DF00009F0B0CFF0933306E09332069ECFFD0179
:103E0000DC01C0CF13821282D7CFB0E0A0E0EBE09C
:103E1000FFE10C942F1C8C01009751F4CB010E9400
:103E2000E01D8C01C801CDB7DEB7E0E10C944B1C5E
:103E3000FC01E60FF71F9C0122503109E217F3073E
:103E400008F49DC0D901CD91DC911197C617D70711
:103E500098F0C530D10530F3CE0104978617970747
:103E600008F3C61BD70B2297C193D1936D937C9314
:103E7000CF010E947C1ED6CF5B01AC1ABD0A4C015B
:103E80008C0E9D1EA0913206B0913306512C412C10
:103E9000F12CE12C109731F580913006909131068C
:103EA0008815990509F05CC04616570608F058C0F9
:103EB0008091050190910601009741F48DB79EB75E
:103EC0004091090150910A01841B950BE817F907ED
:103ED00008F055C0F0933106E0933006F901718384
:103EE0006083A0CF8D919C91119712966C90129740
:103EF00013967C901397A815B90559F56C0142E00B
:103F0000C40ED11CCA14DB0420F1AC014A195B09B0
:103F1000DA011296159780F0628273825183408392
:103F2000D9016D937C93E114F10471F0D7011396DC
:103F3000FC93EE93129776CF22968C0F9D1FF9017A
:103F400091838083F301EFCFF0933306E093320641
:103F500069CF4816590608F42C017D01D3019ACF88
:103F6000CB010E94E01D7C01009749F0AE01B80131
:103F70000E94C21FC8010E947C1E870153CF10E01F
:103F800000E050CFFB01DC0102C001900D924150D6
:103F90005040D8F70895FB01DC018D910190801904
:103FA0000110D9F3990B0895FB01DC0101900D92EA
:103FB0000020E1F70895AEE0B0E0E1EEFFE10C94FF
:103FC0003B1C0D891E898F89988D26E02C831A83CE
:103FD000098397FF02C080E090E801979E838D835C
:103FE000AE01455E5F4F698D7A8DCE0101960E94CC
:103FF0002E204D815E8157FD0AC02F8138854217E2
:1040000053070CF49A01020F131FF80110822E9629
:10401000E4E00C94571CAEE0B0E0E1E1F0E20C9477
:104020003B1C0D891E8986E08C831A8309838FEFE0
:104030009FE79E838D83AE01475E5F4F6F89788DCA
:10404000CE0101960E942E202F813885020F131F6A
:10405000F80110822E96E4E00C94571CABE0B0E01F
:10406000E4E3F0E20C942D1C7C013B018A01FC018D
:1040700017821682838181FFC8C1CE0101965C013F
:10408000F7019381F30193FD859193FF81913F01A6
:10409000882309F453C1853239F493FD859193FF48
:1040A00081913F01853229F4B70190E00E941E22E0
:1040B000E7CF912C212C312CFFE1F31538F08B3216
:1040C00011F190F4803209F1833229F137FC3CC0C0
:1040D00020ED280F2A3050F536FE20C08AE0989E49
:1040E000200D1124922E06C08D3291F0803371F78D
:1040F000689430F8F30193FD859193FF81913F011E
:104100008111DACF21C0689431F8689432F8F2CF87
:10411000689433F8EFCF689434F8ECCFEAE02E9E41
:10412000200D1124222E689435F8E4CF8E3229F424
:1041300036FC04C1689436F8DDCF8C3619F46894E7
:1041400037F8D8CF8836B1F2982F9F7D95549330A9
:10415000E0F08336A1F18337C1F1833509F063C004
:104160002801F2E04F0E511CF801C080D180692D6A
:1041700070E036FC02C06FEF7FEFC6010E9408229C
:104180004C01689437F882010AC00C5F1F4FFFE3AF
:10419000F98388248394912C6501E89437F833FEE1
:1041A0002DC0522C8114910471F5552009F468CF6B
:1041B000B70180E290E00E941E225A94F6CFF801E7
:1041C000808189830E5F1F4FE4CF2801F2E04F0EFC
:1041D000511CF801C080D180692D70E036FC02C00E
:1041E0006FEF7FEFC6010E9413224C018201D5CFF1
:1041F000B70180E290E00E941E222A94281419043C
:1042000009F0B0F7CECFF60137FC859137FE8191EA
:104210006F01B70190E00E941E2251105A94F1E004
:104220008F1A9108BFCF843619F0893609F077C00C
:10423000F80137FE6BC060817181828193810C5FD0
:104240001F4FF32DFF763F2E97FF09C09095809565
:10425000709561957F4F8F4F9F4F689437F82AE094
:1042600030E0A5010E944E22C82ECA188C2C432C87
:1042700036FE0CC0E89440F8C91440F434FE05C082
:1042800032FC03C0F32DFE7E4F2E892C44FE95C0D8
:10429000FE01EC0DF11D8081803309F087C0242DD3
:1042A000297E422E842D8870582E43FC95C040FEF6
:1042B0008FC09C2C821418F42C0C922C981844FE5D
:1042C00091C0B70180E390E00E941E2242FE09C027
:1042D00088E790E041FE02C088E590E0B7010E94C7
:1042E0001E22C91408F48AC0CA94D12C9FEFC91A9F
:1042F000D90ACA0CDB1CF60182916F01B70190E06C
:104300000E941E22AC14BD04B1F74FCF60817181B1
:10431000072E000C880B990B0E5F1F4F92CFD32CEA
:10432000E894D4F82AE030E0853739F1232D297F4D
:10433000D22E8F3601F148F48835A9F0F701868135
:1043400097812B96E2E10C94491C803749F088371D
:10435000A9F7D4FE02C06894D2F820E130E00DC085
:104360006894D4F8F6CF34FE03C0822F8660D82E2E
:1043700020E132E002C028E030E0F801D7FE0FC0B3
:1043800060817181828193810C5F1F4FA5010E9422
:104390004E22C82ECA183D2CE89437F867CF6081AA
:1043A000718190E080E00E5F1F4FF0CF42FC02C0B1
:1043B000839478CF8394839475CF842D867809F481
:1043C00071CFF6CFB70180E290E00E941E22839465
:1043D0008214C0F3512C73CF522C5818821408F455
:1043E0006ECFF8CF842D867809F47BCF8BE241FE27
:1043F00080E247FC8DE2B70190E071CFB70180E326
:1044000090E00E941E229A946CCF8FEF9FEF99CF7D
:10441000FC010590615070400110D8F7809590958F
:104420008E0F9F1F0895FC01615070400190011094
:10443000D8F7809590958E0F9F1F08950F931F9327
:10444000CF93DF93182F092FEB018B8181FD09C0DA
:104450001FEF0FEF812F902FDF91CF911F910F91C1
:10446000089582FF14C02E813F818C819D81281781
:1044700039073CF4E881F981CF010196998388835B
:1044800010838E819F8101969F838E83E3CFE88581
:10449000F985812F0995892BA1F3DACFFA01AA2793
:1044A000283051F1203181F1E8946F936E7F6E5F77
:1044B0007F4F8F4F9F4FAF4FB1E03ED0B4E03CD025
:1044C000670F781F891F9A1FA11D680F791F8A1F08
:1044D000911DA11D6A0F711D811D911DA11D20D06F
:1044E00009F468943F912AE0269F11243019305D29
:1044F0003193DEF6CF010895462F4770405D41931A
:10450000B3E00FD0C9F7F6CF462F4F70405D4A3366
:1045100018F0495D31FD4052419302D0A9F7EACF2E
:10452000B4E0A6959795879577956795BA95C9F75D
:1045300000976105710508959B01AC010A2E069450
:104540005795479537952795BA95C9F7620F731F09
:10455000841F951FA01D089512E0CEE9D2E004C08B
:10456000FE010E94DA1D2196CF39D107C9F7F894D0
:10457000FFCFE803FFF40100003406800000004094
:10458000001400540000000000E3041B0448044B26
:1045900005AB0457046B04000000002806FB05B7B8
:1045A00008D105F405E105D205000000001D091B36
:1045B00004B708B6080D0A00427574746F6E207057
:1045C00072656D75746F00427574746F6E207269D8
:1045D0006C6173636961746F006E616E00696E6611
:1045E000006F76660057656C636F6D652000202D47
:1045F00020536F676C69613D00202D20436F7272FC
:10460000656E746520696E666572696F7265207388
:104610006F676C696100202D20436F7272656E7444
:1046200065205355504552494F524520736F676C72
:104630006961002530347500204572720041646361
:10464000437572723D00202D20666C6F6174566F49
:104650006C7461676553656E736F72653D00202DE4
:104660002064656C74614269743D00202D2063757F
:104670007272656E7453656E736F723D00202D20EB
:10468000696E7443757272656E743D00252B3564D6
:1046900000202D2073747243757272656E743D270D
:1046A00000496D413D0025346400414443206C6560
:1046B00074746F2028686578293A20307800202D9E
:1046C00020466C6F617420536F676C696120286DA0
:1046D00041293A2000202D20696E7420536F676CA9
:1046E000696120286D41293A2000202D20537472E1
:1046F000696E677320536F676C696120286D41296B
:104700003A200020536D410061646356616C756509
:104710003D00202D20666C6F6174566F6C7461676C
:10472000653D00202D20726F756E646564566F6C58
:10473000746167653D0025347300202D2073747209
:10474000566F6C746167653D00566F6C74004D6503
:104750006E7500436F6D616E646F20274D656E75D9
:10476000272072696C657661746F2120456E7472C2
:10477000616E646F206E656C6C612066756E7A691F
:104780006F6E65204D656E7528292E004F464620B8
:104790003D20414443207265616C69004F4E203DCD
:1047A0002041444320737520706F74656E7A2E002B
:1047B000204F4E00204F464600733A2000413A20D9
:1047C00000563A2000453A2000436F6E74615365ED
:1047D000636F6E64693D2000202D20436F6E74610D
:1047E0005365636F6E6469436F7272656E7465457D
:1047F0006C65766174613D2000496E7465727275F6
:104800007A696F6E652064656C6C61206C65747488
:104810007572612E0020204130202020204131205F
:104820002020204132202020204133202020204100
:1048300034202020204135202020204136202020F7
:10484000204137003000506F74204137203D200058
:10485000207C2043757272656E74204132203D20A9
:1048600000207C20566F6C74616765204133203DC9
:104870002000546573746120676C69206F757475CE
:1048800074206120726F74617A696F6E652028737D
:104890006F6C6F207175656C6C6920636F6E6669F3
:1048A0006775617469292E2E2E2071207465726DD2
:1048B000696E6100204400616D702D736F676C2D0F
:1048C00031380042757A7A65722064697361626971
:0848D0006C697461746F000053
:107E0000112484B714BE81FFF0D085E080938100F7
:107E100082E08093C00088E18093C10086E0809377
:107E2000C20080E18093C4008EE0C9D0259A86E02C
:107E300020E33CEF91E0309385002093840096BBD3
:107E4000B09BFECF1D9AA8958150A9F7CC24DD24C4
:107E500088248394B5E0AB2EA1E19A2EF3E0BF2EE7
:107E6000A2D0813461F49FD0082FAFD0023811F036
:107E7000013811F484E001C083E08DD089C08234E0
:107E800011F484E103C0853419F485E0A6D080C0E4
:107E9000853579F488D0E82EFF2485D0082F10E0AE
:107EA000102F00270E291F29000F111F8ED06801E7
:107EB0006FC0863521F484E090D080E0DECF843638
:107EC00009F040C070D06FD0082F6DD080E0C81688
:107ED00080E7D80618F4F601B7BEE895C0E0D1E017
:107EE00062D089930C17E1F7F0E0CF16F0E7DF06D8
:107EF00018F0F601B7BEE89568D007B600FCFDCFD4
:107F0000A601A0E0B1E02C9130E011968C91119780
:107F100090E0982F8827822B932B1296FA010C0160
:107F200087BEE89511244E5F5F4FF1E0A038BF0790
:107F300051F7F601A7BEE89507B600FCFDCF97BE46
:107F4000E89526C08437B1F42ED02DD0F82E2BD052
:107F50003CD0F601EF2C8F010F5F1F4F84911BD097
:107F6000EA94F801C1F70894C11CD11CFA94CF0C13
:107F7000D11C0EC0853739F428D08EE10CD085E9AC
:107F80000AD08FE07ACF813511F488E018D01DD067
:107F900080E101D065CF982F8091C00085FFFCCF94
:107FA0009093C60008958091C00087FFFCCF809118
:107FB000C00084FD01C0A8958091C6000895E0E648
:107FC000F0E098E1908380830895EDDF803219F02E
:107FD00088E0F5DFFFCF84E1DECF1F93182FE3DFCA
:107FE0001150E9F7F2DF1F91089580E0E8DFEE27F6
:047FF000FF270994CA
:027FFE00040479
:00000001FF
